:020000040800F2
:1000000000040020DB010008E9010008EB01000802
:10001000ED010008EF010008F101000800000000F8
:10002000000000000000000000000000F3010008D4
:10003000F501000800000000F7010008F9010008C0
:10004000FB010008FB010008FB010008FB010008A0
:10005000FB010008FB010008FB010008FB01000890
:10006000FB010008FB01000859080008FB0100081B
:10007000FB010008FB010008FB010008FB01000870
:10008000FB010008FB010008FB010008FB01000860
:10009000FB010008FB010008FB010008FB01000850
:1000A000FB010008FB010008FB010008FB01000840
:1000B000ED070008FB010008FB010008FB01000838
:1000C000FB010008FB010008FB010008FB01000820
:1000D000FB010008A7050008FB010008FB01000860
:1000E000FB010008FB010008FB010008FB01000800
:1000F000FB010008FB010008FB010008FB010008F0
:10010000FB010008FB010008FB010008FB010008DF
:10011000FB010008FB010008FB010008FB010008CF
:10012000FB010008FB010008FB010008FB010008BF
:1001300000F002F800F03AF80AA090E8000C8244BF
:100140008344AAF10107DA4501D100F02FF8AFF29C
:10015000090EBAE80F0013F0010F18BFFB1A43F0A5
:1001600001031847441C0000641C0000103A24BF1F
:1001700078C878C1FAD8520724BF30C830C144BF0C
:1001800004680C607047000000230024002500264E
:10019000103A28BF78C1FBD8520728BF30C148BFEA
:1001A0000B6070471FB51FBD10B510BD00F039FEC4
:1001B0001146FFF7F7FF00F038FC00F057FE03B4DC
:1001C000FFF7F2FF03BC00F0DFF9000030BF72B6AA
:1001D00062B680F30888704770470B4880470B4928
:1001E00081F308880A480047FEE7FEE7FEE7FEE7DE
:1001F000FEE7FEE7FEE7FEE7FEE7FEE70548064905
:10020000044A064B70470000D901000890090020FD
:100210003101000890010020900900209001002089
:100220004FF0E021096921F004014FF0E022116153
:10023000C21700EB5272C2F3C702234B1A70194661
:10024000097801EB4102C2EBC1114FF6FF7202EADD
:10025000C1011E4A1180704701461B4A12784A4369
:100260004FF0E0235A6100229A6101221A6100BF17
:100270004FF0E022106900F001021AB100F4803260
:10028000002AF5D000224FF0E0231A619A617047EE
:1002900001460E4A12884A434FF0E0235A61002279
:1002A0009A6101221A6100BF4FF0E022106900F04C
:1002B00001021AB100F48032002AF5D000224FF07A
:1002C000E0231A619A6170470000002002000020BC
:1002D000A14A0A400243A14B1A6070470146072316
:1002E00023EA010212029D4B1B1D18684FF6FF0303
:1002F00018409B4B18431043984B1B1D18607047C8
:100300002DE9F0410746884614461D462846FFF76A
:10031000E5FFC5F1040007FA00F60F20284100EAC6
:100320000800064306F00F06202C09DA8D48006805
:100330000121A14008434FF0E021C1F800010BE08A
:100340008848001D0068A4F1200101228A40104362
:100350004FF0E021C1F804018348005D40EA061037
:10036000C1B281480155BDE8F08170B504460B4625
:10037000CE1701EB9676C6F38700CE1701EB967683
:10038000B610A1EB8606B606350E784B9B6943F096
:100390000103764EB3614FEAB63353F820300F268F
:1003A000AE40B343724E46F82030334653F8203007
:1003B00004FA05F61E436E4B43F820606D4B1B6834
:1003C00001268E4033436B4E336002F0010343B18C
:1003D000684B0C331B6801268E403343654E0C3648
:1003E000336002F0020343B1624B08331E680123FD
:1003F0008B401E435F4B08331E6070BD00B500206C
:100400005A490861C8601420486100208861C861A9
:100410000846006840F001000860084640685649F8
:1004200008405249486008460068544908404F490E
:1004300008600846006820F480200860084640688C
:1004400020F4FE0048600020886000214FF000602A
:10045000FFF73EFF00BD10B540480830006840F08F
:1004600004003E49083108604048C06940F08050AF
:100470003E49C8614248406840F480704049486045
:100480000846006840F0040008600846006840F034
:1004900002000860FFF79AFE10BD3148001D2F4989
:1004A000091D0860704701464906304A926942F0CA
:1004B00001022E4B9A612E4A083A526822F0E062FD
:1004C0002B4B083B5A601A4652680A435A607047E1
:1004D00030B504460025FFF791FF2448006840F43A
:1004E00080302249086000BF20480068400C002886
:1004F000FAD04FF480601D494860A01EC4B208467F
:10050000406840EA844048600846406840F48030D3
:1005100048601C48006840F032001A4908601348DF
:10052000006840F080701149086000BF0F48006803
:10053000400E0028FAD00D48406840F002000B49F8
:10054000486005E009484068C0F3870505F00305E9
:10055000022DF7D130BD000080FFFF1F08ED00E045
:100560000000FA0500E100E000E400E000100240B5
:1005700008000140000401400000FFF8FFFFF6FE04
:100580000070004000200240014600BF704700BFDD
:10059000584A128802F04002002AF9D0C2B2554BE4
:1005A0001B1D1A8070475349098801F0200111B3BF
:1005B0005049091D0988C8B24F49098801F4004112
:1005C000C9B94D49098801F4804161B10A2803D0B5
:1005D0000021494A118020E04749098841F400413F
:1005E000454A118019E00D2806D14349098841F494
:1005F0008041414A118010E03F490988C1F30D0153
:100600003E4A50543C490988491C3B4A11801146D6
:100610000988C72901DD0021118070472DE9F05FAD
:1006200005460E46300101F0F9F98146344905FBD3
:1006300001F001F0F3F98246494601F0D9F8074686
:10064000384601F0CBF984B2204601F0E7F9834641
:10065000394601F028FB82464FF0834101F026FA2B
:10066000814601F0BBF980464FF6FF7000EA0414A2
:1006700004EB080084B22348806940F0040021495B
:1006800088610846806940F4804088611E4800689F
:1006900020F47F601C4908600846006840F40B6045
:1006A00008601848C06840F480401649C860084691
:1006B000C06820F48040C8600E4808300480001DE7
:1006C000008842F20C0108430A490C3108800846B0
:1006D000008840F4807008800846008840F02000C0
:1006E00008800223252203210846FFF709FEBDE802
:1006F000F09F000000380140080000203400002076
:1007000040420F000010024004080140324AD26902
:1007100042F00402304BDA611A46926942F0080254
:100720009A611A46926942F001029A612B4A526814
:1007300022F0E062294B5A601A46526842F0007279
:100740005A60274A126802F47F42254B1A601A4603
:100750001268244B1A43224B1A60214A083212684D
:1007600042F480721E4B08331A601A46126842F433
:1007700000721A601C4A1080121F11801A4A103A27
:10078000128842F07002184B103B1A801A461288E9
:1007900042F008021A801A1D128842F480721B1D52
:1007A0001A801A1F128842F4E0421B1F1A801A4650
:1007B000128842F400621A801A1D128842F4805294
:1007C0001B1D1A808022084B2C3B1A801A46128867
:1007D00042F001021A807047001002400000014000
:1007E000040C0140BB0033332C0800404FF0804024
:1007F000008A00F0010020B115480068401C14492F
:1008000008604FF08040008A20F001004FF08041E6
:100810000882704770B505460C460E48C06940F026
:1008200001000C49C861880485850485808940F0F1
:100830000100890488810846808940F04000888151
:1008400002231C2203210120FFF75AFD70BD000086
:1008500018000020001002402DE9F84F4FF08040B2
:10086000008820F001004FF0804108802448006893
:10087000244908600846006801F0D0F8009000F0B4
:100880001DFF80464FF033321F4B00F02FFD064610
:1008900000221E4B00F0D2FB044600221C4B00F04D
:1008A00023FE824600F0F0FA1A49086010201A4927
:1008B0000860BDE8F88F10B51848806940F008005E
:1008C000164988611648006820F47F0014490860C2
:1008D0000846006840F46010086011480C30006859
:1008E0000F490C310860012204211046FFF73DFD3D
:1008F00002230A2219461846FFF702FD10BD000028
:1009000018000020140000203333FB3F0000244077
:10091000000014400C0000201404014000100240AC
:10092000000C01401B4AD26942F00202194BDA6105
:100930001A46926942F008029A61174A126822F038
:100940000F02154B1A601A46126842F00B021A6029
:10095000124A1080121F1180104A103A128842F079
:1009600060020E4B103B1A801A46128842F00802B1
:100970001A801A1D128842F480721B1D1A80802270
:10098000064B2C3B1A801A46128842F001021A804C
:100990007047000000100240000C01402C04004091
:1009A00010B500F0A7F833E000F0EDF93F4908700A
:1009B000084600780D2804DB08460078112800DC82
:1009C00027E03A4800780D280EDA38490978C1F155
:1009D0000F0101EBC10202EB01114FF6FF7202EAB7
:1009E000410000F0D8F813E03048007811280DDD00
:1009F0002E4909780F3901EBC10202EB01114FF6C4
:100A0000FF7202EA410000F0A8F801E000F087F868
:100A1000CAE700BF0020264908700F20254908803A
:100A200010BD10B500F04EF810BD0920FFF750FDC5
:100A30004820FFF7F5FB4FF416514820FFF7EEFD75
:100A400000214FF46170FFF761FE41F61F41C7209E
:100A5000FFF768FF47210A20FFF7DCFEFFF72BFFB7
:100A60000F201449088020E011480078C0B900F038
:100A7000B0F811491148006801F0E4F802D20E48BC
:100A80000E490860FFF7CDFF0D490C48006800F0E3
:100A9000D9FF07D201200649087000F02BF801E0C9
:100AA000FFF77EFF6420FFF7F3FBDDE71100002076
:100AB000100000203C0400400000A0420C00002078
:100AC0000000F041C3480088C3490880C14800883D
:100AD000091D08800120C14908600020C049C1F8F3
:100AE000B4010120BD49083108600020BC49C1F8AB
:100AF000BC017047BB480088B7490880B9480088E6
:100B0000091D08800020B5490860B549C1F8B40145
:100B1000B24908310860B249C1F8BC01704710B54C
:100B2000AC480088AC490880AA480088091D0880A4
:100B30000020AA4908600120A949C1F8B401002099
:100B4000A649083108600120A549C1F8BC0132203E
:100B5000FFF79EFBFFF7CEFF10BD10B504469D4882
:100B600000889D4908809B480088091D0880012055
:100B70009A49086000209A49C1F8B40197490831A0
:100B8000086001209649C1F8BC012046FFF780FBB0
:100B9000FFF7B0FF10BD10B504468E4800888E499F
:100BA00008808C480088091D088000208B49086057
:100BB00001208B49C1F8B401884908310860002040
:100BC0008749C1F8BC012046FFF762FBFFF792FF9F
:100BD00010BD10B54FF08040008840F001004FF08C
:100BE000804108800846008A20F001000882002029
:100BF0007D49086000240FE0012078491C39086015
:100C00000C20FFF729FB00207549C1F894010C2046
:100C1000FFF722FB601CC4B2082CEDDB0A20FFF7B3
:100C200037FB10BD7148007860B171480078401FF3
:100C30006F4908700846007805280FD100206B49DD
:100C400008700BE06A480078401D69490870084642
:100C50000078192802D1012064490870644800789E
:100C60006449088070472DE9F04104460D4600278D
:100C70006148047028E061495F4A127851F8220007
:100C8000394600F0DFFF0BD25C485B49097850F829
:100C90002170594800784000401DC6B2B0460EE0B1
:100CA0005649554A127851F82200394600F062FE42
:100CB00005D1514800784000401D00F0FF084E4823
:100CC0000078401C4C4908704B480078A842D2DD9F
:100CD00006EB080101EBD170C0F34700BDE8F081DD
:100CE00010B500204649086046490870464908701A
:100CF000464908704049087040E03F48007840008D
:100D0000401D3C4908806420FFF7C2FAFFF761FFED
:100D10003F4800683949384A127841F822003D4975
:100D20003B48006800F08EFF18D233480078042852
:100D300005DA35480078401C334908700EE02E482B
:100D40000078062805DD2F480078401C2D490870E2
:100D500004E02E480078401C2C490870284801689F
:100D60002B48006800F06EFF03D229480068244930
:100D7000086021480078401C1F4908701E48007810
:100D80000B28BADB10BD10B5FFF7AAFF21491C489C
:100D9000006800F057FE05D31A4800781A49097810
:100DA000884201D1002010BD18480078022801DDDA
:100DB0000F20F8E71348007813490978884204DDCA
:100DC0000A210720FFF74FFFEDE703210020FFF77F
:100DD0004AFFE8E71E0000203C080040B0812142A5
:100DE000008021421C00002018000020310000205B
:100DF000300000203C04004021000020FC000020C6
:100E000028000020220000202300002024000020D1
:100E10000C0000200000F041704770477047704799
:100E20007047754600F02CF8AE46050069465346FB
:100E300020F00700854618B020B5FFF7DFF9BDE8C0
:100E400020404FF000064FF000074FF000084FF031
:100E5000000B21F00701AC46ACE8C009ACE8C009C2
:100E6000ACE8C009ACE8C0098D46704710B504462F
:100E7000AFF300802046BDE81040FFF7A0B90000A6
:100E8000004870472C01002021F00042A2F160527E
:100E9000B2F5801F01F0004328BFD2F17F6C0BD95F
:100EA0005FEA001C43EAC20242EB507018BF704771
:100EB00028BF20F001007047B2F5801FBCBF184664
:100EC00070474FEA410C1CF5001F02D2084600F0A3
:100ED000B4BE70B500F0B4FA00000089FFF7F6BFA9
:100EE0004FF00040A0F580007047000010B591EA77
:100EF000030F48BF83F0004300F1FE82841A71EBB8
:100F0000030C05D2121943EB0C03001B61EB0C011F
:100F1000DFF824E14FEA1154A4EB135C1EEA430FFF
:100F200018BF9EEA445F73D023EA0E03DCF1200E63
:100F300021EA045143F4801332D322FA0CFE10EB61
:100F40000E0023FA0CFE41EB0E01CCF1200E03FA49
:100F50000EFE10EB0E0051F10001B1F5801FCCF137
:100F6000200E32D201EB045112FA0EF2BDE810400D
:100F700058BF7047401C38BF5FEA420218BF704735
:100F8000002814BF20F0010041F100014FEA4103A5
:100F900013F5001F38BF7047A1F1C04100F09EBAA1
:100FA000012A43EB0302ACF1200CDCF11F0E32BF2F
:100FB0004FF0000E23FA0CF310EB030041EB045149
:100FC000B4EB115FD0D0A1EB045101F580114908B9
:100FD0005FEA300001EB04510ED350F1000038BF3E
:100FE00012FA0EFE08D1BDE81040C9E7401C38BF18
:100FF0005FEA4202CAD1C3E7BDE810404FEA4103AD
:1010000013F5001F38BF7047A1F1C04100F066BA68
:101010009EEA445F08D011EA5E0FBDE8104004BFAD
:1010200001F0004100207047BDE8104070B500F0AD
:1010300007FA00BF64FBBE3E0000E0FF2DE9C0419F
:1010400030B4DFF8A0C23CEA111418BF3CEA131414
:1010500000F0EC8081EA03051CEA111444EAD5741F
:1010600018BF1CEA131500F0C780A4EB05044FF06D
:10107000004545EAC12145EAC32341EA505143EA0C
:10108000525304F17F74994204F500344FEAC020B2
:101090004FEAC22208BF904200F09C804FEA1365DD
:1010A0000FF24016765D4FEA134506FB05F7C7F1D0
:1010B000807706FB07F74FEAD737A7FB036876422E
:1010C000C8F58038A7FB06CE38BFA8F1010807FB9A
:1010D00008E64FF0000EA6FB028CE6FB03CEDCF127
:1010E000000CCEF1004E38BFAEF1010EA6FB0C583D
:1010F0004FF000074FF00005E6FB0E87A1FB08C686
:10110000A0FB07CE16EB0E0645F10005E1FB0765D7
:1011100015F1E04E7EBFA4F580345FEA46066D41CE
:1011200016F1800745F100054FEA17274FEA0666DA
:1011300047EA0567A6F1DE46B6F1805F4FEA15255E
:101140001FD9384624F0010C05EBC471BCF1FE6FC9
:1011500001EB0C1102D8F0BCBDE8008124425CBF59
:1011600001F5801E9EEAC47F02D4F0BCBDE8008178
:10117000244238D4F0BCA1F1C041BDE8004100F0E8
:10118000ADB94FEAD22242EA43524FEAD323A7FB3A
:1011900002864FEAD02040EA415007FB03661EEA70
:1011A0000E0F4FEAD12105FB026658BFA6EB005691
:1011B000B6EB00564FEA520E4EEAC37E18EB0E0E07
:1011C00056EB530EBDD518EB02085E417F1C55F15E
:1011D0000005B6E74FF480154FF000074FF000060A
:1011E0004FF00008ADE7F0BC4FF0000001F1C04146
:1011F00001F00041BDE8008111EA0C1F0CEA131553
:1012000000D00CE013EA0C1F00F025804FF0000026
:10121000F0BC81EA030101F00041BDE80081F0BCAF
:10122000BDE8004181EA030100F058B9F0BCBDE817
:10123000004170B500F004F9097EFC3E00F007B8EB
:1012400081EA03014FF0000001F00041704781EA9C
:10125000030100F043B9F0BCBDE800414FF00000CD
:1012600021497047FFFDFBF9F7F5F4F2F0EEEDEBE5
:10127000E9E8E6E4E3E1E0DEDDDBDAD8D7D5D4D394
:10128000D1D0CFCDCCCBCAC8C7C6C5C4C2C1C0BFE0
:10129000BEBDBCBBBAB9B8B7B6B5B4B3B2B1B0AFE6
:1012A000AEADACABAAA9A8A8A7A6A5A4A3A3A2A1CA
:1012B000A09F9F9E9D9C9C9B9A9999989797969585
:1012C00095949393929191908F8F8E8E8D8C8C8B21
:1012D0008B8A8989888887878685858484838382A9
:1012E000828181800000FF070000F87FDFF848C19D
:1012F00070B51CEA111E1EBF1CEA13159EEA0C0FE6
:1013000095EA0C0F00F06F8081EA030423EA4C1386
:101310004EEAD47E21EA4C1141F4801143F480134B
:10132000AE44A1FB024CA0FB0365AEF17F7E3619F3
:1013300055EB0C05A1FB034C4CF10003A0FB021C78
:1013400016EB0C06654153F10003094218BF46F045
:10135000010613F4007F0BD14FEA03314FEA053049
:10136000340341EA155140EA16506FF003020AE0D7
:101370004FEAC3214FEAC520F40241EA555140EA41
:1013800056506FF0020202EB2E4201EB025585EA45
:10139000CE710AD05FEA440C18BF24F0004450F12B
:1013A000000041F1000120EAD47040F2FE7C624569
:1013B00000D270BDA84214BF4FF080444FF04044AB
:1013C000002E08BF0024BEF1806FA8BFA1F1C0416C
:1013D000BDE8704080F282804FF0000001F1C04112
:1013E00001F0004170479EEA0C0F0CEA131518BF7C
:1013F00095EA0C0F06D04FF0000081EA030E0EF0C4
:10140000004170BD00F01CF88900013E00F007B8F3
:1014100000F009B84FEA430C5FEA5C5C08D081EA4F
:10142000030100F05BB84FEA410C5FEA5C5CF6D167
:101430004FF00000014970470000FF070000F87FEF
:101440000EF1020E2EF0030E5EF8046B364205D448
:10145000012A43EB030515F5001F12D8012841EBC3
:10146000010C1CF5001F0CD80ED14FEAD17C15F5EC
:10147000001F0CEB4C0C0CF1020C08BF4CEBD37CA6
:1014800004E04FF0080C01E04FEAD37C0CEB4C0574
:1014900026FA05F606F00706B6F1040C06D20EEBA6
:1014A000860CBDE870404CF0010C6047DFE80CF0A2
:1014B000090B02024FF000414FF00000A1F500219E
:1014C00070BD19461046012851EB010418BFD4F530
:1014D000001484BF002001F0004170BD0808A0F591
:1014E00000114FEA3101704710B591EA030F48BF70
:1014F00083F000433FF502AD841A71EB030C07D271
:1015000012198CF0004C43EB0C03001B61EB0C0137
:10151000DFF8A4E14FEA1154A4EB135C1EEA430F79
:1015200018BF9EEA445F00F0B08023EA6E03524287
:1015300021EA0451C3EB6E0338BF5B1EDCF1200EC1
:1015400025D322FA0CFE10EB0E0043FA0CFE41EB01
:101550000E01CCF1200E03FA0EFE10EB0E0051F13D
:101560000001CCF1200E29D412FA0EF201EB045145
:10157000BDE8104058BF7047401C1CBFB2F1004F7F
:10158000704700280CBF491C20F00100704712EB87
:10159000020E43EB030218BF4FF0010E4EEA420267
:1015A000ACF1200CDCF11E0E54D943FA0CFE10EB0A
:1015B0000E0051F1FF31CCF11E0ED5D50EF1010E0A
:1015C00012FA0EFE404141EB010101EB445C5FEA7F
:1015D0005C5C10D910EBDE7001EB045138BFBEF13A
:1015E000004FBDE8104018BF704700280CBF491CD1
:1015F00020F00100704730D24FEAD42C11F50011D1
:1016000024F400641BD0B1FA81F20B3AA41AA41E90
:10161000D2F12003914030FA03F31943904001EBDB
:10162000CC71002C01EB0451BDE81040A8BF7047FD
:1016300001F1C0414FF0000001F000417047B0FAE5
:1016400080F310FA03F100D110BDE41A173C4805ED
:10165000C90AE4E701EB045110BD491001EB045144
:10166000BDE810404FEA300002E04FF00001704743
:101670004A0008BF0042F8D0B2F5001F28BF7047EB
:1016800001F000414FF0000070479EEA445F07D030
:1016900011EA5E0FBDE8104004BF00210020704732
:1016A000BDE8104070B5FFF7CBFE00BF40DFF63E4F
:1016B00083F00041104670470000E0FF43004FEA0E
:1016C000D30C4FEA3C0C43401FBF40070CF1605164
:1016D00013F0FE4F70471CF0006F03D100200CF098
:1016E000004170470CF0004343EA507010B540EAE7
:1016F000CC0000F05CFA00BF000000924FEA00014D
:10170000FFF7ECBE4FF000414FF00000A1F50021C3
:101710007047000090EA010F48BF81F0004100F1DE
:10172000D482421A3CBF801A89184FEAD0524FF037
:101730007F4C1CEA410FA2EBD15318BF9CEA026F09
:1017400000F03B804FF0004C4CEA00204CEA0121B5
:1017500021FA03FC10EB0C0C1ED202F1FF325FEAFF
:101760001C2040EBC25038BF70471CF07F0F4FEA7F
:10177000400C18BFBCF17F4F38BF7047C3F1200346
:10178000994008BF20F00100BCF17F4F38BF70477F
:10179000A0F1C04000F051BA4FEA3C00000A40EB13
:1017A000C25028BF1CF0FF0F4FEA400CE6D018BF14
:1017B000BCF17F4F38BF7047EAE79CEA026F05D063
:1017C00010EA5C0F08BF00F00040704710B500F051
:1017D000EEF900BF64FBBE3E401058BFC0F1404070
:1017E000491058BFC1F140418142EFF3008070477A
:1017F0004FF47F0C1CEAD0121EBF1CEAD11392EAF0
:101800000C0F93EA0C0F00F0858090EA010F48BF9F
:1018100042F4807240F4000C41F400002CF07F414F
:1018200020F07F4000B58142A2EB03020FF2081CBA
:10183000ACEB504EC0F100009EF800E04FEA4E0EB7
:1018400000FB0EFC38BF49004FEA2C1C02F5FA02DF
:101850000CFB0EF34FEACE1E4FEA112C4FEAC121CA
:101860000EEB635E42EB22420EFB0CFC4FEA1C5374
:1018700000FB03114FEA112C4FEA01310EFB0CFC67
:101880004FEADC4C00FB0C11C14228BF09184CEB9D
:1018900003335DF804EB10EB410143EBC250B2F5AA
:1018A0007C0F38BF704729D512F0F00F1CBF00F134
:1018B000C04000F0004070470081828384858687A5
:1018C00088898B8C8D8E8F919293959697999A9CFF
:1018D0009D9FA0A2A3A5A7A8AAACAEB0B2B3B5B76E
:1018E000B9BCBEC0C2C5C7C9CCCED1D4D7D9DCDF44
:1018F000E2E6E9ECF0F3F7FAFE0000004FEA400CF4
:101900000CF1807CBCF17E4F28BF7047B0F1C04025
:1019100000F093B990EA010F0CEAD11348BF42F4EA
:101920008072624538BF634507D213F47F0F16D02B
:1019300080EA010000F00040704710B500F037F970
:10194000097EFC3E00F005B880EA010000F000408E
:10195000704780EA010000F0004000F06EB912F418
:101960007F0F04BF0248704780EA010000F065B9AC
:101970000000C07F50EA010C00F113801CF5000F3D
:1019800058BFBCF5000F01D48842704707D710F547
:10199000000F58BF11F5000F15D4884270478942D7
:1019A00070471CF5000F04D5BCF5000FF7D5814238
:1019B00070474FF0807C1CEB400F38BF1CEB410F91
:1019C00001D28142704710B500F0F1F8922449002D
:1019D0004FF000504FF08051FFF7FEBEC10DD1F126
:1019E0009E0206DB4FEA002343F0004323FA02F095
:1019F0007047004207D54FEA4001B1F1FE4F02D2D5
:101A00004FF00000704710B500F0D1F849922480E3
:101A1000002070476FEA200070470000B0FA80F3A2
:101A200010FA03F2C3F19D030AD0D90501EB12208D
:101A3000530638BF704700F1010008BF20F00100D5
:101A40007047000050EA010C00F113801CF5000FF4
:101A500058BFBCF5000F01D48842704707D710F576
:101A6000000F58BF11F5000F15D488427047894206
:101A700070471CF5000F04D5BCF5000FF7D5814267
:101A800070474FF0807C1CEB400F38BF1CEB410FC0
:101A900001D28142704710B500F089F892244900C4
:101AA0004FF000504FF08051FFF796BE4FF47F0C7F
:101AB0001CEAD0121EBF1CEAD11392EA0C0F93EA63
:101AC0000C0F00F0478090EA010F48BF42F480728B
:101AD0004FF0004C4CEA00204CEA012102EB0302DB
:101AE000A0FB0113A2F50002002918BF43F0010377
:101AF0005B0028BF4FEA330342EB22425FEA132C1C
:101B00004CEBC2502EBFBCEB436FB2F57C0F70475D
:101B10004FEA036CBCF1004F08BF20F00100B2F5A2
:101B20007C0F38BF70470BD582F0FF0212F5803F63
:101B3000C8BF704700F1C040D8BF00F000407047F8
:101B400000F5000C5FEA4C0C48BF7047B0F1C04094
:101B500000F073B890EA010F0CEAD11348BF42F4C9
:101B60008072624538BF634504D280EA010000F00C
:101B70000040704710B500F01AF800BF8900013E20
:101B800000F007B800F009B85FEA410C5FEA1C6C8E
:101B900008D080EA010000F050B85FEA400C5FEA2C
:101BA0001C6CF6D14FF00040A0F5800070470EF19C
:101BB000020E2EF0030E5EF8044B244204D44FEACA
:101BC0004102B2F17F4F11D84FEA4003B3F17F4F8A
:101BD0000CD80ED14FEAD07CB2F17F4F0CEB4C0CFD
:101BE0000CF1020C08BF4CEBD17C04E04FF0080C68
:101BF00001E04FEAD17C0CEB4C0324FA03F404F02F
:101C00000704B4F1040C06D20EEB840CBDE81040BE
:101C10004CF0010C6047DFE80CF0070802024FF0BF
:101C20000040A0F5800010BD0846420018BFD2F168
:101C3000807288BF00F0004010BDFF2141EAD05003
:101C4000C005704751EA000C00F113801CF5000F2D
:101C500058BFBCF5000F01D48142704707D711F57A
:101C6000000F58BF10F5000F15D48142704789420C
:101C700070471CF5000F04D5BCF5000FF7D588425E
:101C800070474FF0807C1CEB410F38BF1CEB400FBE
:101C900001D28842704780EA010081EA000180EAAF
:101CA0000100FFF7F8BE80F0004090EA010F7FF5D9
:101CB00038AD81F0004100F008B8000090EA010F53
:101CC00048BF81F000413FF52CAD421A04D882F0A4
:101CD0000042A0EB020011444FEAD0524FF07F4C7B
:101CE0001CEA410FA2EBD15318BF9CEA026F4AD005
:101CF0004FF0004C4CEA00204CEA012121FA03FC91
:101D0000B0EB0C0C0FD412F0FE0F36D05FEA4C0093
:101D10001DD5001240EBC25038BF70471CF03F0F7A
:101D200018BF70470BE0A2F101025FEA1C2040EBF4
:101D3000C25038BF70471CF07F0F18BF7047C3F107
:101D40002003994014BF401E20F001007047800816
:101D50004FEA122308BF7047B0FA80FCA2EB0C02D6
:101D6000CCF1280C60FA0CF093EA122F04BF00EBC0
:101D7000C25070474FEAC3707047130A5FEADC1025
:101D800008BF7047F6E79CEA026F04D010EA5C0FC8
:101D900008BF0020704710B5FFF709FF40DFF63E8F
:101DA00081F0004070470000C81D000800000020BE
:101DB000340000006C010008FC1D00083400002005
:101DC0005C0900008801000800000000000000001D
:101DD0000000000000000000000F000000000000F4
:101DE000000000008403C8000000000000000000A4
:0C1DF00000000000000000000F010000D7
:0400000508000131BD
:00000001FF
